:100000000C9445010C9476010C9476010C947601C5
:100010000C9476010C9476010C9476010C94760184
:100020000C9476010C9476010C9476010C94760174
:100030000C9476010C9460090C9476010C94760172
:100040000C9476010C9476010C9476010C94760154
:100050000C9476010C9476010C9476010C9416099C
:100060000C9476010C9476010C9476010C94760134
:100070000C9476010C9476010C9476010C94760124
:100080000C9476010C9476010C9476010C94760114
:100090000C9476010C9476010C9476010C94760104
:1000A0000C9476010C9476010C9476010C947601F4
:1000B0000C9476010C9476010C9476010C947601E4
:1000C0000C9476010C9476010C9476010C94EA0958
:1000D0000C94C0090C9476010C9476010C94760172
:1000E0000C9476010C942F020C9452020C943E0254
:1000F0000C9444020C94200A0C945C020C9433027D
:100100000C9418060C943B060C946A020C94290279
:100110000C944E020C94CE060C941F070C946002B3
:100120000C9469020C9464020C949F050C949B053A
:100130000C94A3050C9456020C9448020C9481066E
:100140000C943B020C9420070C94BE0F0C942706D1
:100150000C9449060C9437020C94B9070C946E0267
:100160000C94EB0500002100240027002A002D003C
:100170003000330001010000040107010A01000002
:1001800020002300260029002C002F00320000014F
:10019000000003010601090100000A0B02090C0D11
:1001A0000E0807030401000000000000000000002A
:1001B000000000000000000000000000000000003F
:1001C00000000000121110000000000000000000FC
:1001D000000000000000000000000000000001021C
:1001E0001020200808102040102040800201020149
:1001F0000804020101020408102040808040201001
:100200000804020180040201804020100804020159
:1002100008040201010204081020408001020408C1
:100220001020408000002200250028002B002E0016
:100230003100340002010000050108010B01050531
:100240000505070508080808020202020A0A08084C
:10025000040404040101010101010101030303037A
:1002600003030303040707070C0C0C0C0C0C0C0C09
:100270000202020206060606060606060B0B0B0B1A
:100280000B0B0B0B0200200ABE0F11241FBECFEF79
:10029000D1E2DEBFCDBF00E00CBF25E0ACE8B3E0AB
:1002A00001C01D92AD30B207E1F713E0A0E0B2E06B
:1002B000E4EBF7E200E00BBF02C007900D92AC3810
:1002C000B107D9F711E0C4E4D1E000E006C02197FE
:1002D0000109802FFE010E947F11C334D10780E005
:1002E0000807A9F70E941D0B0C94C8130C9400007A
:1002F00096E0899FD0011124A25ABB4F90967C931F
:100300006E935F9791E091969C939197E091CB04C7
:10031000F091CC049091CA04992339F0309751F0B0
:10032000811108C080917A041994309719F05C9675
:100330008C91FACF0895CF92DF92EF92FF920F93B4
:100340001F9396E0899FF0011124E25AFB4F11A2FE
:10035000278D30A12130310551F178F0223031055F
:1003600009F451C02330310509F452C01F910F9197
:10037000FF90EF90DF90CF9008956623B9F361E08E
:1003800070E00E9478012FB7F894809197039091C4
:100390009803A0919903B0919A032FBF8093B6045C
:1003A0009093B704A093B804B093B904DFCF9FB77C
:1003B000F894C0909703D0909803E0909903F09040
:1003C0009A039FBF0091B6041091B7042091B8041E
:1003D0003091B904C01AD10AE20AF30A0091C804A4
:1003E0001091C90430E020E00C151D052E053F05D5
:1003F00050F462E070E01F910F91FF90EF90DF905A
:10040000CF900C9478016111B1CF63E070E0F3CF2D
:1004100070E060E0F0CF8150823108F05AC0E82FE0
:10042000F0E08827E95EFD4F8F4F0C947F11370273
:100430003B0229022F02330269023E0244024802B3
:100440004E02520256025C026002690264026A02B3
:100450006E02809180008F77809380000895809154
:1004600080008F7DF9CF80918000877FF5CF84B5A4
:100470008F7784BD089584B58F7DFBCF8091B000C8
:100480008F778093B00008958091B0008F7DF9CF71
:10049000809190008F7780939000089580919000D4
:1004A0008F7DF9CF80919000877FF5CF8091A0005C
:1004B0008F778093A00008958091A0008F7DF9CF61
:1004C0008091A000877FF5CF809120018F77809366
:1004D00020010895809120018F7DF9CF8091200126
:1004E000877FF5CFCF93DF93282F30E0F901E856CF
:1004F000FE4F8491F901E252FE4FD491F901E25C82
:10050000FD4FC491CC23A1F081110E940B02EC2F6E
:10051000F0E0EE0FFF1FE258FE4FA591B491EC9171
:10052000ED2381E090E009F480E0DF91CF91089520
:1005300080E090E0FACF1F93CF93DF93282F30E035
:10054000F901E856FE4F8491F901E252FE4FD49131
:10055000F901E25CFD4FC491CC23A9F0162F811163
:100560000E940B02EC2FF0E0EE0FFF1FEC5DFD4F41
:10057000A591B4918FB7F894EC91111108C0D09562
:10058000DE23DC938FBFDF91CF911F910895DE2B87
:10059000F8CFCF93DF9390E0FC01E252FE4F24911D
:1005A000825C9D4FFC0184918823C9F090E0880F04
:1005B000991FFC01EC59FE4FA591B491FC01EC5D33
:1005C000FD4FC591D49161110DC09FB7F8948C91E6
:1005D000209582238C938881282328839FBFDF91D5
:1005E000CF910895623051F49FB7F8943C91822FD7
:1005F000809583238C93E8812E2BEFCF8FB7F894CF
:10060000EC912E2B2C938FBFEACF8F929F92AF92BB
:10061000BF92CF92DF92EF92FF92CF936C018091C5
:1006200000028E3069F08F3F09F45DC0CF91FF90DA
:10063000EF90DF90CF90BF90AF909F908F900895F4
:10064000E4E8F2E0C491C7FDF1CF61E08EE00E94E2
:10065000C902CC2319F0C23009F019C14601B12CEE
:10066000A12C60E072E18AE790E0A50196010E946A
:10067000601169017A0162E17AE780E090E0A5010A
:1006800094010E946011BA01A90141505109610908
:100690007109CC2309F4B0C196E04F3F51056105C3
:1006A000710579F074F0B701A6019AE07595679528
:1006B000579547959A95D1F74150510961097109AC
:1006C00097E08091B100887F892B8093B100C23080
:1006D00009F47FC10CF076C1CC2309F4A6C1C13066
:1006E00009F0A4CF02C18EE080930002E4E8F2E0BA
:1006F000C4918C2FCF3F09F499CFC23009F468C060
:1007000060F4CC2379F1C13009F444C087FD8ECF69
:1007100061E08EE00E94C9029ECFC43009F499C006
:1007200008F478C0C53091F7109220011092210191
:100730008091210188608093210180912101816055
:1007400080932101ECE4F2E0E491F0E0EE0FFF1F72
:10075000EC5DFD4F85919491ECEEF1E0E491E09336
:100760009B0373CF14BC15BC84B5826084BD85B572
:10077000816085BDECE4F2E0E491F0E0EE0FFF1F54
:10078000EC5DFD4F85919491ECEEF1E0E491E09306
:10079000A2035BCF109280001092810080918100B3
:1007A00088608093810080918100816080938100C6
:1007B000ECE4F2E0E491F0E0EE0FFF1FEC5DFD4FA2
:1007C00085919491ECEEF1E0E491E093A1033DCFAB
:1007D0001092B0001092B1008091B00082608093BE
:1007E000B0008091B10081608093B100ECE4F2E050
:1007F000E491F0E0EE0FFF1FEC5DFD4F85919491C9
:100800009093A00380939F03ECEEF1E0E491E093DA
:100810009E031BCF10929000109291008091910046
:100820008860809391008091910081608093910015
:10083000ECE4F2E0E491F0E0EE0FFF1FEC5DFD4F21
:1008400085919491ECEEF1E0E491E0939D03C3E097
:10085000FCCE1092A0001092A1008091A1008860AF
:100860008093A1008091A10081608093A100ECE4BD
:10087000F2E0E491F0E0EE0FFF1FEC5DFD4F85919B
:100880009491ECEEF1E0E491E0939C03DECEF12C48
:10089000E12C60E072E18AE790E0A70196010E94F6
:1008A0006011BA01A901415051096109710991E032
:1008B0004115510581E0680771057CF068E478EE28
:1008C00081E090E0A70196010E946011BA01A901A0
:1008D000415051096109710993E0C130D9F4809107
:1008E0008100887F892B80938100509389004093F9
:1008F00088008FEF9FEFDC018093B3039093B403E4
:10090000A093B503B093B60380916F00826080938B
:100910006F008CCEC330D9F480919100887F892BF1
:100920008093910050939900409398008FEF9FEF30
:10093000DC018093AB039093AC03A093AD03B09321
:10094000AE03809171008260809371006FCEC430DD
:10095000D9F48091A100887F892B8093A1005093C6
:10096000A9004093A8008FEF9FEFDC018093A703BD
:100970009093A803A093A903B093AA038091720057
:1009800082608093720052CEC53009F0A0CE809173
:100990002101887F892B8093210150932901409365
:1009A00028018FEF9FEFDC018093A3039093A403B2
:1009B000A093A503B093A6038091730082608093F7
:1009C000730034CEC43059F20CF4ACCFC53029F3E7
:1009D0002DCE4093B3008FEF9FEFDC018093AF03E8
:1009E0009093B003A093B103B093B20380917000D1
:1009F0008260809370001ACE94E04F3F51056105EC
:100A0000710579F074F0B701A6018AE075956795D4
:100A1000579547958A95D1F7415051096109710958
:100A200095E085B5887F892B85BD47BD8FEF9FEF0A
:100A3000DC018093B7039093B803A093B903B093FC
:100A4000BA0380916E00826080936E00EFCD863392
:100A500008F0865320917B00982F9870277F922B67
:100A600090937B008770806480937C0080917A00F3
:100A7000806480937A0080917A0086FDFCCF80911B
:100A800078009091790008953FB7F894809193038E
:100A900090919403A0919503B091960326B5A89BDD
:100AA00005C02F3F19F00196A11DB11D3FBFBA2F00
:100AB000A92F982F8827BC01CD01620F711D811DC0
:100AC000911D42E0660F771F881F991F4A95D1F745
:100AD00008958F929F92AF92BF92CF92DF92EF9242
:100AE000FF924B015C010E9444056B017C010E9456
:100AF00044056C197D098E099F09683E7340810584
:100B00009105A8F321E0821A9108A108B10888EEA6
:100B1000C80E83E0D81EE11CF11C81149104A104CD
:100B2000B10429F7FF90EF90DF90CF90BF90AF9086
:100B30009F908F900895862F642F0C94C902862F62
:100B4000642F0C949B02862F0C94720290910002E9
:100B500089130DC0E4E8F2E0E4919FEF9093000266
:100B6000E230E1F038F4EE2381F0E13089F060E02A
:100B70000C949B02E43049F110F1E530C1F79091FB
:100B800073009D7F90937300F2CF10926E00EFCFB1
:100B900090916F009D7F90936F00E9CF90917000CE
:100BA0009D7F9093700091E09093B0009091B10080
:100BB000987F94609093B1001092B300D8CF909139
:100BC00071009D7F90937100D2CF909172009D7FB4
:100BD00090937200CCCFAF92BF92CF92DF92EF9200
:100BE000FF920F931F93CF93DF936C017B018B01D7
:100BF000040F151FEB015E01AE18BF08C017D10727
:100C000059F06991D601ED91FC910190F081E02DB0
:100C1000C6011995892B79F7C501DF91CF911F91F5
:100C20000F91FF90EF90DF90CF90BF90AF9008951D
:100C3000FC01538D448D252F30E0842F90E0821BE2
:100C4000930B541710F0CF96089501970895FC0167
:100C5000918D828D981761F0A28DAE0FBF2FB11DBF
:100C60005D968C91928D9F5F9F73928F90E0089517
:100C70008FEF9FEF0895FC01918D828D981731F0D1
:100C8000828DE80FF11D858D90E008958FEF9FEF25
:100C90000895FC01918D228D892F90E0805C9F4FFB
:100CA000821B91098F73992708958BEB93E00E9423
:100CB000490621E0892B09F420E0822F0895FC01E8
:100CC000A48DA80FB92FB11DA35ABF4F2C91848DAD
:100CD00090E001968F739927848FA689B7892C930A
:100CE000A089B1898C91837080648C93938D848D5D
:100CF000981306C00288F389E02D80818F7D808360
:100D00000895EF92FF920F931F93CF93DF93EC011F
:100D100081E0888F9B8D8C8D98131AC0E889F989A2
:100D2000808185FF15C09FB7F894EE89FF896083A5
:100D3000E889F98980818370806480839FBF81E026
:100D400090E0DF91CF911F910F91FF90EF90089568
:100D5000F62E0B8D10E00F5F1F4F0F731127E02E43
:100D60008C8D8E110CC00FB607FCFACFE889F9897B
:100D7000808185FFF5CFCE010E945F06F1CFEB8D1C
:100D8000EC0FFD2FF11DE35AFF4FF0829FB7F8944F
:100D90000B8FEA89FB8980818062CFCFCF93DF936D
:100DA000EC01888D8823B9F0AA89BB89E889F98983
:100DB0008C9185FD03C0808186FD0DC00FB607FCB8
:100DC000F7CF8C9185FFF2CF808185FFEDCFCE01EB
:100DD0000E945F06E9CFDF91CF91089580E090E017
:100DE000892B49F080E090E0892B29F00E940000D7
:100DF00081110E94000080E090E0892B49F080E0A2
:100E000090E0892B29F00E94000081110E940000CF
:100E100080E090E0892B29F00E94550681110E9404
:100E2000000080E090E0892B49F080E090E0892B81
:100E300029F00E94000081110C940000089508958B
:100E400090E080E00895CF93DF93EC0160E08E8125
:100E50000E949B0261E08E810E949B0260E08E8175
:100E60000E949B028BE891E00197F1F7DF91CF910F
:100E70000895CF92DF92EF92FF920F931F93CF933B
:100E8000DF936C017C0187E0E80EF11CD0E0C0E04C
:100E9000062F10E0B8010C2E02C0759567950A94D4
:100EA000E2F76170F70181917F010E949B02219618
:100EB000C430D10579F7C601DF91CF911F910F9111
:100EC000FF90EF90DF90CF900C942307CF92DF92AA
:100ED000EF92FF920F931F93CF93DF93EC01F62EC7
:100EE000642F8C810E949B028D818F3F19F060E0FE
:100EF0000E949B020F2D10E08F8584FF25C06E019C
:100F000087E0C80ED11CF12CE12CB8010E2C02C0D8
:100F1000759567950A94E2F76170F60181916F010A
:100F20000E949B02FFEFEF1AFF0A88E0E816F10427
:100F300061F7CE01DF91CF911F910F91FF90EF905C
:100F4000DF90CF900C942307B80184E075956795E6
:100F50008A95E1F7CE010E9439076F2DCE01DF910E
:100F6000CF911F910F91FF90EF90DF90CF900C9455
:100F7000390741E00E94660781E090E0089540E073
:100F80000C94660761E00E94BF078BE39FE1019725
:100F9000F1F708950F931F93CF93DF93EC01623025
:100FA00019F48F8588608F876B8B1C8A80E48D8B0A
:100FB00080E18E8B80E58F8B61E08C810E94C9027D
:100FC0008D818F3F19F061E00E94C90261E08E813E
:100FD0000E94C9028E0198012C1B3D0B8F8584FD58
:100FE0000DC084E090E00F5F1F4F281739074CF4C5
:100FF00061E0F80186810E94C902EDCF88E090E0AF
:10100000F2CF8BE39DE00197F1F760E08C810E94C5
:101010009B0260E08E810E949B028D818F3F19F0C0
:1010200060E00E949B026F8564FD34C063E0CE01E6
:101030000E9439070BE416E4C8010197F1F763E059
:10104000CE010E943907C8010197F1F763E0CE0194
:101050000E94390783E592E00197F1F762E0CE0143
:101060000E9439076F856062CE010E94BF0784E04D
:10107000888B6CE0CE010E94BF07CE010E94C207A0
:1010800082E0898B66E0CE01DF91CF911F910F91B5
:101090000C94BF076062CE010E94BF078BE496E408
:1010A0000197F1F76F856062CE010E94BF0783E56B
:1010B00092E00197F1F76F856062CE010E94BF0751
:1010C000D1CFFB0101900020E9F73197AF01461B1A
:1010D000570BDC01ED91FC910280F381E02D199416
:1010E000CF93DF93BC0189ED94E00E946108EC018D
:1010F00067E472E089ED94E00E9461088C0F9D1F07
:10110000DF91CF91089520915C0430915D04232BF1
:1011100039F421E0FC018081882361F020E00AC0DD
:10112000BC0180915804909159040E94B81321E0A9
:10113000892BA1F7822F0895CF93DF93EC0188814B
:101140009981009711F00E944512198218821D8220
:101150001C821B821A82DF91CF910895FC0180814D
:101160009181009711F00C94451208950F931F93ED
:10117000CF93DF93EC0188819981009759F02A8100
:101180003B812617370730F081E0DF91CF911F9127
:101190000F9108958B016F5F7F4F0E94CE120097D1
:1011A00059F0998388831B830A832C813D81232BEB
:1011B00059F7FC011082E8CF80E0E7CFEF92FF9271
:1011C0000F931F93CF93DF93EC017B018A01BA0148
:1011D0000E94B60881110BC0CE010E949C08CE016E
:1011E000DF91CF911F910F91FF90EF9008951D8394
:1011F0000C83B701888199810E94C113F0CF50E020
:1012000040E069E472E00C94DE08FC011182108277
:101210001382128215821482FB0101900020E9F7EB
:101220003197AF01461B570B0C94DE081F920F92AB
:101230000FB60F9211242F933F938F939F93AF93E9
:10124000BF938091970390919803A0919903B091D7
:101250009A033091920323E0230F2D3758F501961E
:10126000A11DB11D2093920380939703909398033F
:10127000A0939903B0939A03809193039091940360
:10128000A0919503B09196030196A11DB11D809385
:10129000930390939403A0939503B0939603BF9107
:1012A000AF919F918F913F912F910F900FBE0F9013
:1012B0001F90189526E8230F0296A11DB11DD2CFCD
:1012C0001F920F920FB60F9211240BB60F922F930D
:1012D0003F934F935F936F937F938F939F93AF93BE
:1012E000BF93EF93FF938091AF039091B003A091D0
:1012F000B103B091B203892B8A2B8B2BE1F1909132
:101300009E03E0919F03F091A00380818927808351
:101310008091AF039091B003A091B103B091B2035B
:10132000181619061A061B069CF48091AF039091BB
:10133000B003A091B103B091B2030197A109B10923
:101340008093AF039093B003A093B103B093B20323
:10135000FF91EF91BF91AF919F918F917F916F918D
:101360005F914F913F912F910F900BBE0F900FBE49
:101370000F901F901895809100020E94A605E8CF5B
:101380001F920F920FB60F9211240BB60F922F934C
:101390003F934F935F936F937F938F939F93AF93FD
:1013A000BF93EF93FF938BEB93E00E945F06FF9157
:1013B000EF91BF91AF919F918F917F916F915F91CD
:1013C0004F913F912F910F900BBE0F900FBE0F903A
:1013D0001F9018951F920F920FB60F9211240BB603
:1013E0000F922F938F939F93EF93FF93E091CB03F3
:1013F000F091CC038081E091D103F091D20382FD82
:101400001DC090818091D4038F5F8F732091D5038D
:10141000821741F0E091D403F0E0E554FC4F958F42
:101420008093D403FF91EF919F918F912F910F9013
:101430000BBE0F900FBE0F901F9018958081F2CFBA
:101440000F931F93CF931092BE031092BD0388EEAB
:1014500093E0A0E0B0E08093BF039093C003A0931B
:10146000C103B093C20383E292E09093BC038093E4
:10147000BB0385ED90E09093C8038093C70384ED90
:1014800090E09093CA038093C90380ED90E090931D
:10149000CC038093CB0381ED90E09093CE038093B7
:1014A000CD0382ED90E09093D0038093CF0386ED3F
:1014B00090E09093D2038093D1031092D4031092C2
:1014C000D5031092D6031092D7031092F404109211
:1014D000F3040FE312E01093F2040093F1048DE0A3
:1014E0008093F504CFEFC093F6048CE08093F7046B
:1014F0008BE08093F8048AE08093F90489E080937C
:10150000FA0488E08093FB041092FC041092FD041E
:101510001092FE041092FF041092000561E081EF2A
:1015200094E00E94CA071092DC041092DB0410932E
:10153000DA040093D9048CE28093DD04C093DE04C6
:101540008DE28093DF048EE28093E0048FE280934B
:10155000E10480E38093E20481E38093E30410924A
:10156000E4041092E5041092E6041092E70410924D
:10157000E80461E089ED94E00E94CA076AE472E041
:1015800083ED94E00E94050969E472E08DEC94E03B
:101590000E94050910926004109264041092630482
:1015A0001092650485E392E090935F0480935E045B
:1015B000EAE7F4E01082148213821582369684E002
:1015C000E63BF807B9F785E092E09093C104809379
:1015D000C00481E092E09093C3048093C20484E04D
:1015E0008093C4048093C50489E092E09093BF0483
:1015F0008093BE048AE090E09093C7048093C60471
:1016000084EF91E09093C9048093C8041092CC04B5
:101610001092CB041092BA041092BB041092BC0436
:101620001092BD041092CA0469E472E088E594E067
:10163000CF911F910F910C940509CF93DF9300D0A8
:1016400000D01F921F92CDB7DEB7789484B5826028
:1016500084BD84B5816084BD85B5826085BD85B556
:10166000816085BD80916E00816080936E001092D4
:10167000810080918100826080938100809181004F
:1016800081608093810080918000816080938000E0
:101690008091B10084608093B1008091B00081603E
:1016A0008093B0008091910082608093910080913E
:1016B000910081608093910080919000816080937F
:1016C00090008091A10082608093A1008091A10090
:1016D00081608093A1008091A00081608093A00030
:1016E000809121018260809321018091210181609C
:1016F000809321018091200181608093200180915D
:101700007A00846080937A0080917A00826080936E
:101710007A0080917A00816080937A0080917A00CB
:10172000806880937A001092C100E091CB03F09121
:10173000CC0382E08083E091C703F091C80310825C
:10174000E091C903F091CA038FEC80831092D30318
:10175000E091CF03F091D00386E08083E091CD0348
:10176000F091CE03808180618083E091CD03F09180
:10177000CE03808188608083E091CD03F091CE0319
:10178000808180688083E091CD03F091CE038081D9
:101790008F7D808361E086E00E94C90261E087E07E
:1017A0000E94C90261E085E00E94C90261E084E014
:1017B0000E94C90262E08AE30E94C90261E081E0FE
:1017C0000E94C90260E08EE30E94C90262E081EFDC
:1017D00094E00E94CA0781EF94E00E94C2076FE480
:1017E00072E081EF94E00E94610864EF71E080E0B4
:1017F00090E00E94690581EF94E00E94C207E1E059
:10180000809104058111E0E0E195F0E0EF50FB4F9D
:101810006489606881EF94E00E94BF0761E08EE018
:101820000E94C90262E089ED94E00E94CA07212C5F
:10183000312C2101239466246394712C21E02093A0
:10184000CA048FB7F8944091970350919803609120
:10185000990370919A038FBF8091BA049091BB0451
:10186000A091BC04B091BD04481B590B6A0B7B0BC3
:101870008091C6049091C704B0E0A0E0841795075A
:10188000A607B70708F00FC110E08091C40418172D
:1018900060F4E091C004F091C104E10FF11D62E039
:1018A00080810E94C9021F5FF0CFF12C8091C50496
:1018B000F81608F061C0CF2CD12CE091C204F09151
:1018C000C304EC0DFD1D61E080810E94C902E0911E
:1018D000C204F091C304EC0DFD1D60E080810E9404
:1018E0009B02D201C1010F2C04C0880F991FAA1FAF
:1018F000BB1F0A94D2F74C015C01A094B094E12C78
:101900008091C404E81608F50E2D10E0E091C004A3
:10191000F091C104E00FF11F80810E9472020C5F00
:101920001F4F000F111FF801E25AFB4F892B41F4A2
:10193000808191818829992991838083E394E0CFE4
:10194000808191818A219B21F7CFE091C204F0919F
:10195000C304EC0DFD1D61E080810E949B0280911B
:10196000C2049091C304C80ED91E60E0F6018081C4
:101970000E94C902F3949ACF0EE514E0F801878D16
:1019800090A1892B31F4148E8FEF9FEF968F858F66
:1019900011A2369694E0EA39F90789F7D12C8091A3
:1019A000C404D81608F053C0C12CED2CF12CEE0C59
:1019B000FF1CF701EA59FB4F7F012091C504C216B5
:1019C00008F043C0F701608171810C2C02C076954C
:1019D00067950A94E2F7D29E900111242C0D311DD7
:1019E000EEE5F4E080E0458D568D2417350709F4C7
:1019F00084C28F5F36968A30B1F760FF24C0EEE56F
:101A0000F4E090E080E0448D411118C0E091BE0404
:101A1000F091BF04E20FF31F408156E0589FF001A0
:101A2000599FF00D1124E25AFB4F448F368F258FBA
:101A300010A2178E61E00E949B0105C001963696A8
:101A40008A30910501F7C394B8CFD394A8CF80E032
:101A5000F80191A19111892F0A5F1F4FF4E00A3913
:101A60001F07B1F79FB7F8944091970350919803DF
:101A70006091990370919A039FBF4093BA04509369
:101A8000BB046093BC047093BD04882361F0809113
:101A90007F04882341F080917D0490917E04109111
:101AA0007A04019719F01092CA0410E08EE30E94A4
:101AB00072029093910380939003112309F451C013
:101AC0001D3309F4B5C01E3209F49AC01A82198276
:101AD0001C821B821E821D826091CD047091CE04F7
:101AE0006115710541F04091D1045091D204CE01AD
:101AF00001960E94DE081F8318860D811E810F5FEC
:101B00001F4FB801CE0101960E94B608811165C031
:101B1000CE0101960E949C0869817A816115710548
:101B200009F469C04D815E818DEC94E00E94DE086D
:101B3000CE0101960E94AE0881EF94E00E94C20798
:101B400062E081EF94E00E94CA074091D104509175
:101B5000D2046091CD047091CE0481EF94E00E9494
:101B6000EB0580918C0390918D038130910509F0F4
:101B7000A8C18BEB93E00E944906892B09F497C01A
:101B800063E070E080E090E00E9469058BEB93E0F9
:101B90000E94270689831A8200915C0410915D04DB
:101BA0000F5F1F4FB80188E594E00E94B6088823B4
:101BB00001F3209158043091590480915C04909174
:101BC0005D04BE016F5F7F4F820F931F0E94C113A0
:101BD00010935D0400935C04CCCF29813A818D8100
:101BE0009E81BE01695F7F4F820F931F0E94C113C8
:101BF0001E830D8391CF8DEC94E00E949C0898CFBA
:101C00008DEC94E00E94FF0881EF94E00E94C207EF
:101C1000E1E0809104058111E0E0E195F0E0EF5012
:101C2000FB4F6489606881EF94E00E94BF078DCF0D
:101C30002091D1043091D2048091D7049091D8049E
:101C400028173907C1F48091CD049091CE0460919A
:101C5000D3047091D404009709F451C16115710542
:101C600039F4232B09F459C1FC01808190E052C161
:101C70000E94B8134FC180918E0390918F030196FB
:101C800090938F0380938E0303970CF05DC181EFD7
:101C900094E00E94C20762E081EF94E00E94CA07CC
:101CA0006BE772E081EF94E00E9461084DC14091C2
:101CB0005C0450915D044115510541F16091580457
:101CC000709159048BEB93E00E94EB0567E472E09E
:101CD0008BEB93E00E9461088DEA92E00E948308FA
:101CE000882309F451C08CE30E94270561E0853FF9
:101CF00091400CF050C086E00E949B0261E087E0BA
:101D00000E949B0288E594E00E94FF088AE30E94FB
:101D10007202019709F0AFC061E081E00E949B026E
:101D200061E085E00E949B0261E084E00E949B02EA
:101D300068EC70E080E090E00E94690561E173E08A
:101D400089ED94E00E946108E091EC04E23008F033
:101D500097C0E150F0E0E752FB4F6489606889ED7D
:101D600094E00E94BF078DE30E9427058536910508
:101D70000CF088C080E293E00E9470088EE00E9420
:101D8000A6050E94EE065ACD8BEB92E00E948308D6
:101D9000882331F060E086E00E949B0260E0AFCFD4
:101DA00089EC92E00E9483088823A9F18BE30E94CA
:101DB0002705BC01990F880B990B0E94D10F20E0D9
:101DC00030E040E85AE30E94301020E030E040EA82
:101DD00050E40E94301020E030E04AE754E40E94D2
:101DE000301020E030E040E251E40E94EE1020E0AC
:101DF00030E048ED51E40E94CA0F61E087FF05C062
:101E000085E00E949B0260E004C085E00E949B0286
:101E100061E084E075CF8FED92E00E948308882313
:101E200011F060E0EDCF86EF92E00E9483088823F6
:101E3000A1F08CE30E94270561E0853F914044F4C6
:101E400086E00E949B0261E087E00E949B02AECF89
:101E500086E00E949B0260E0F7CF83E093E00E945F
:101E60008308882309F44ECF60E085E00E949B023E
:101E700060E086E045CF60E081E00E949B025ECF9B
:101E8000E1E068CF9C0125563109283C310518F462
:101E90008FE293E071CF8D5291404E9718F48FE30B
:101EA00093E06ACF80E593E00E94700884E690E0BA
:101EB0000E94050364E670E080E090E00E946905FE
:101EC0005DCF892B09F05DCF8091900390919103B4
:101ED000019709F056CF81EF94E00E94C20762E0BB
:101EE00081EF94E00E94CA0763E673E081EF94E01B
:101EF0000E94610888EC90E0DBCF61709CCD611599
:101F0000710559F0232B49F0FB01808190E09195F8
:101F100081959109892B09F0AECE81EF94E00E9462
:101F2000C20762E081EF94E00E94CA0761E672E0B6
:101F300081EF94E00E94610810928F0310928E034B
:101F400070928D0360928C0380918E0390918F0329
:101F500003977CF081EF94E00E94C20762E081EF7A
:101F600094E00E94CA076EE872E081EF94E00E945C
:101F700061088DEC94E00E94FF08F3CD88E594E0C1
:101F80000E94AE088DEC94E00E94AE0883ED94E0D0
:101F90000C94AE080E940C1008F481E00895E894B7
:101FA00009C097FB3EF490958095709561957F4FA1
:101FB0008F4F9F4F9923A9F0F92F96E9BB2793954F
:101FC000F695879577956795B795F111F8CFFAF45F
:101FD000BB0F11F460FF1BC06F5F7F4F8F4F9F4F90
:101FE00016C0882311F096E911C0772321F09EE8EE
:101FF000872F762F05C0662371F096E8862F70E054
:1020000060E02AF09A95660F771F881FDAF7880F2D
:102010009695879597F90895990F0008550FAA0B83
:10202000E0E8FEEF16161706E807F907C0F01216EB
:102030001306E407F50798F0621B730B840B950BEE
:1020400039F40A2661F0232B242B252B21F4089543
:102050000A2609F4A140A6958FEF811D811D0895E0
:102060000E9443100C94B4100E94A61038F00E94F5
:10207000AD1020F0952311F00C949D100C94A3103A
:1020800011240C94E8100E94C51070F3959FC1F3C1
:10209000950F50E0551F629FF001729FBB27F00D16
:1020A000B11D639FAA27F00DB11DAA1F649F66276B
:1020B000B00DA11D661F829F2227B00DA11D621FBA
:1020C000739FB00DA11D621F839FA00D611D221F74
:1020D000749F3327A00D611D231F849F600D211D58
:1020E000822F762F6A2F11249F5750409AF0F1F0DB
:1020F00088234AF0EE0FFF1FBB1F661F771F881F44
:1021000091505040A9F79E3F510580F00C949D10CE
:102110000C94E8105F3FE4F3983ED4F386957795EE
:102120006795B795F795E7959F5FC1F7FE2B880FE9
:10213000911D9695879597F9089597F99F6780E87F
:1021400070E060E008959FEF80EC089500240A9409
:102150001616170618060906089500240A94121682
:102160001306140605060895092E0394000C11F4B5
:10217000882352F0BB0F40F4BF2B11F460FF04C062
:102180006F5F7F4F8F4F9F4F089557FD9058440FBB
:10219000551F59F05F3F71F04795880F97FB991FC6
:1021A00061F09F3F79F08795089512161306140683
:1021B000551FF2CF4695F1DF08C016161706180610
:1021C000991FF1CF86957105610508940895E894EB
:1021D000BB2766277727CB0197F908950E94021144
:1021E0000C94B4100E94AD1058F00E94A61040F05C
:1021F00029F45F3F29F00C949D1051110C94E810C4
:102200000C94A3100E94C51068F39923B1F35523D1
:1022100091F3951B550BBB27AA27621773078407F9
:1022200038F09F5F5F4F220F331F441FAA1FA9F38F
:1022300035D00E2E3AF0E0E832D091505040E6957D
:10224000001CCAF72BD0FE2F29D0660F771F881FDE
:10225000BB1F261737074807AB07B0E809F0BB0BD1
:10226000802DBF01FF2793585F4F3AF09E3F5105E5
:1022700078F00C949D100C94E8105F3FE4F3983EC6
:10228000D4F3869577956795B795F7959F5FC9F7CE
:10229000880F911D9695879597F90895E1E0660F4F
:1022A000771F881FBB1F621773078407BA0720F0C8
:1022B000621B730B840BBA0BEE1F88F7E095089531
:1022C000052E97FB1EF400940E94771157FD07D04E
:1022D0000E94871107FC03D04EF40C94771150959F
:1022E0004095309521953F4F4F4F5F4F0895909502
:1022F0008095709561957F4F8F4F9F4F0895EE0F9A
:10230000FF1F881F8BBF0790F691E02D1994A1E263
:102310001A2EAA1BBB1BFD010DC0AA1FBB1FEE1F5F
:10232000FF1FA217B307E407F50720F0A21BB30BAA
:10233000E40BF50B661F771F881F991F1A9469F726
:1023400060957095809590959B01AC01BD01CF0182
:1023500008950F931F93CF93DF938230910510F46C
:1023600082E090E0E0910B05F0910C0530E020E078
:10237000B0E0A0E0309799F42115310509F44AC086
:10238000281B390B24303105D8F58A819B816115D2
:10239000710589F1FB0193838283FE0111C04081A5
:1023A00051810281138148175907E0F048175907F6
:1023B00099F4109761F012960C93129713961C9350
:1023C0003296CF01DF91CF911F910F910895009325
:1023D0000B0510930C05F4CF2115310551F0421770
:1023E000530738F0A901DB019A01BD01DF01F801B3
:1023F000C1CFEF01F9CF90930C0580930B05CDCFA2
:10240000FE01E20FF31F819391932250310939832A
:102410002883D7CF2091090530910A05232B41F459
:1024200020911B0230911C0230930A05209309056C
:102430002091190230911A022115310541F42DB76E
:102440003EB740911D0250911E02241B350BE091B6
:102450000905F0910A05E217F307A0F42E1B3F0BC4
:102460002817390778F0AC014E5F5F4F2417350706
:1024700048F04E0F5F1F50930A0540930905819362
:1024800091939FCFF0E0E0E09CCFCF93DF93009754
:10249000E9F0FC01329713821282A0910B05B091F2
:1024A0000C05ED0130E020E01097A1F4208131818E
:1024B000820F931F2091090530910A0528173907CB
:1024C00009F061C0F0930A05E0930905DF91CF910F
:1024D0000895EA01CE17DF07E8F54A815B819E0186
:1024E00041155105B1F7E901FB83EA8349915991FF
:1024F000C40FD51FEC17FD0761F48081918102960E
:10250000840F951FE90199838883828193819B833E
:102510008A83F0E0E0E012968D919C9113970097EA
:10252000B9F52D913C911197CD010296820F931F21
:102530002091090530910A052817390739F6309797
:1025400051F510920C0510920B05B0930A05A0935B
:102550000905BCCFD383C28340815181840F951F6D
:10256000C817D90761F44E5F5F4F88819981480F82
:10257000591F518340838A819B81938382832115D4
:10258000310509F0B0CFF0930C05E0930B059ECF19
:10259000FD01DC01C0CF13821282D7CF4F925F9230
:1025A0006F927F928F929F92AF92BF92CF92DF9263
:1025B000EF92FF920F931F93CF93DF938C010097BD
:1025C00099F4CB01DF91CF911F910F91FF90EF9084
:1025D000DF90CF90BF90AF909F908F907F906F9043
:1025E0005F904F900C94A911FC01E60FF71F9C011E
:1025F00022503109E217F30708F4AEC0D901CD919A
:10260000DC911197C617D70720F1C530D10578F0B6
:10261000CE0104978617970750F0C61BD70B229759
:10262000C193D1936D937C93CF010E944512C80151
:10263000DF91CF911F910F91FF90EF90DF90CF909E
:10264000BF90AF909F908F907F906F905F904F90D2
:1026500008955B01AC1ABD0A4C018C0E9D1EA09121
:102660000B05B0910C05512C412CF12CE12C10974D
:1026700031F58091090590910A058815990509F0B1
:102680005CC04616570608F058C080911902909118
:102690001A02009741F48DB79EB740911D025091E8
:1026A0001E02841B950BE817F90708F055C0F0933C
:1026B0000A05E0930905F90171836083B8CF8D9114
:1026C0009C91119712966C90129713967C90139789
:1026D000A815B90559F56C0142E0C40ED11CCA1405
:1026E000DB0420F1AC014A195B09DA011296159757
:1026F00080F06282738251834083D9016D937C9311
:10270000E114F10471F0D7011396FC93EE93129744
:102710008ECF22968C0F9D1FF90191838083F30148
:10272000EFCFF0930C05E0930B0581CF48165906C7
:1027300008F42C017D01D3019ACFCB010E94A9118D
:102740007C01009749F0AE01B8010E94AF13C801A7
:102750000E94451287016BCF10E000E068CFFB01BB
:10276000DC0102C001900D9241505040D8F708950D
:10277000FB01DC018D91019080190110D9F3990BB7
:102780000895FB01DC0101900D920020E1F708950E
:1027900011E0C4E4D1E000E006C0802FFE010E94F9
:1027A0007F112196011DC534D10780E00807A9F7E4
:0427B000F894FFCFCB
:1027B400FF36373839323334353738392F343536F4
:1027C4002A3132332D2E303D2B00000D05800000C0
:1027D4000000008106EB051806CE06490627063BD5
:1027E40006000000009B059F05A30500000000B93A
:1027F40007EB0520071F070D0A002A313234005366
:102804004D41525420484F4D452053595354454D42
:10281400004C6F7A696E6B61207461636E61214450
:102824006F62726F646F736C692100506F677265B9
:10283400C5A16E61206C6F7A696E6B6121002055B1
:10284400706F7A6F72656E6A6521212120506F72F4
:10285400756B6120706F736C616E612100757061BE
:102864006C692073766A65746C6F0075676173694F
:102874002073766A65746C6F00756B6C6A75C48DB1
:102884006974692076656E74696C61746F7200692D
:10289400736B6C6A75C48D6974692076656E74692E
:1028A4006C61746F7200756B6C6A75C48D6920738A
:1028B40076650069736B6C6A75C48D69207376657F
:1028C4000020204E49564F20564F4445203A2000C0
:1028D40020202020205072617A616E202020002068
:1028E40020202020204E69736B6F202020200020A0
:1028F40020202020537265646E6A65202020200009
:102904002020202020205669736F6B6F2020202008
:102914002020004F746B726976656E206A652070A2
:102924006F6B7265742062657A20617574656E746C
:0C2934006966696B6163696A65210000D7
:00000001FF
